{
  "_format": "hh-sol-artifact-1",
  "contractName": "StakingContract",
  "sourceName": "contracts/StakingContract.sol",
  "abi": [
    {
      "inputs": [
        {
          "internalType": "contract IERC20",
          "name": "_stakeToken",
          "type": "address"
        },
        {
          "internalType": "contract IERC20",
          "name": "_rewardToken",
          "type": "address"
        },
        {
          "internalType": "address",
          "name": "initialOwner",
          "type": "address"
        }
      ],
      "stateMutability": "nonpayable",
      "type": "constructor"
    },
    {
      "inputs": [
        {
          "internalType": "address",
          "name": "owner",
          "type": "address"
        }
      ],
      "name": "OwnableInvalidOwner",
      "type": "error"
    },
    {
      "inputs": [
        {
          "internalType": "address",
          "name": "account",
          "type": "address"
        }
      ],
      "name": "OwnableUnauthorizedAccount",
      "type": "error"
    },
    {
      "anonymous": false,
      "inputs": [
        {
          "indexed": true,
          "internalType": "address",
          "name": "previousOwner",
          "type": "address"
        },
        {
          "indexed": true,
          "internalType": "address",
          "name": "newOwner",
          "type": "address"
        }
      ],
      "name": "OwnershipTransferred",
      "type": "event"
    },
    {
      "inputs": [
        {
          "internalType": "address",
          "name": "",
          "type": "address"
        }
      ],
      "name": "balances",
      "outputs": [
        {
          "internalType": "uint256",
          "name": "",
          "type": "uint256"
        }
      ],
      "stateMutability": "view",
      "type": "function"
    },
    {
      "inputs": [],
      "name": "owner",
      "outputs": [
        {
          "internalType": "address",
          "name": "",
          "type": "address"
        }
      ],
      "stateMutability": "view",
      "type": "function"
    },
    {
      "inputs": [],
      "name": "renounceOwnership",
      "outputs": [],
      "stateMutability": "nonpayable",
      "type": "function"
    },
    {
      "inputs": [
        {
          "internalType": "address",
          "name": "user",
          "type": "address"
        },
        {
          "internalType": "uint256",
          "name": "amount",
          "type": "uint256"
        }
      ],
      "name": "reward",
      "outputs": [],
      "stateMutability": "nonpayable",
      "type": "function"
    },
    {
      "inputs": [],
      "name": "rewardToken",
      "outputs": [
        {
          "internalType": "contract IERC20",
          "name": "",
          "type": "address"
        }
      ],
      "stateMutability": "view",
      "type": "function"
    },
    {
      "inputs": [
        {
          "internalType": "uint256",
          "name": "amount",
          "type": "uint256"
        }
      ],
      "name": "stake",
      "outputs": [],
      "stateMutability": "nonpayable",
      "type": "function"
    },
    {
      "inputs": [],
      "name": "stakeToken",
      "outputs": [
        {
          "internalType": "contract IERC20",
          "name": "",
          "type": "address"
        }
      ],
      "stateMutability": "view",
      "type": "function"
    },
    {
      "inputs": [
        {
          "internalType": "address",
          "name": "newOwner",
          "type": "address"
        }
      ],
      "name": "transferOwnership",
      "outputs": [],
      "stateMutability": "nonpayable",
      "type": "function"
    },
    {
      "inputs": [
        {
          "internalType": "uint256",
          "name": "amount",
          "type": "uint256"
        }
      ],
      "name": "unstake",
      "outputs": [],
      "stateMutability": "nonpayable",
      "type": "function"
    }
  ],
  "bytecode": "0x60806040523480156200001157600080fd5b5060405162000f5138038062000f518339818101604052810190620000379190620002bd565b80600073ffffffffffffffffffffffffffffffffffffffff168173ffffffffffffffffffffffffffffffffffffffff1603620000ad5760006040517f1e4fbdf7000000000000000000000000000000000000000000000000000000008152600401620000a491906200032a565b60405180910390fd5b620000be816200014a60201b60201c565b5082600160006101000a81548173ffffffffffffffffffffffffffffffffffffffff021916908373ffffffffffffffffffffffffffffffffffffffff16021790555081600260006101000a81548173ffffffffffffffffffffffffffffffffffffffff021916908373ffffffffffffffffffffffffffffffffffffffff16021790555050505062000347565b60008060009054906101000a900473ffffffffffffffffffffffffffffffffffffffff169050816000806101000a81548173ffffffffffffffffffffffffffffffffffffffff021916908373ffffffffffffffffffffffffffffffffffffffff1602179055508173ffffffffffffffffffffffffffffffffffffffff168173ffffffffffffffffffffffffffffffffffffffff167f8be0079c531659141344cd1fd0a4f28419497f9722a3daafe3b4186f6b6457e060405160405180910390a35050565b600080fd5b600073ffffffffffffffffffffffffffffffffffffffff82169050919050565b6000620002408262000213565b9050919050565b6000620002548262000233565b9050919050565b620002668162000247565b81146200027257600080fd5b50565b60008151905062000286816200025b565b92915050565b620002978162000233565b8114620002a357600080fd5b50565b600081519050620002b7816200028c565b92915050565b600080600060608486031215620002d957620002d86200020e565b5b6000620002e98682870162000275565b9350506020620002fc8682870162000275565b92505060406200030f86828701620002a6565b9150509250925092565b620003248162000233565b82525050565b600060208201905062000341600083018462000319565b92915050565b610bfa80620003576000396000f3fe608060405234801561001057600080fd5b50600436106100935760003560e01c8063715018a611610066578063715018a61461011e5780638da5cb5b14610128578063a694fc3a14610146578063f2fde38b14610162578063f7c618c11461017e57610093565b806321670f221461009857806327e235e3146100b45780632e17de78146100e457806351ed6a3014610100575b600080fd5b6100b260048036038101906100ad9190610817565b61019c565b005b6100ce60048036038101906100c99190610857565b610249565b6040516100db9190610893565b60405180910390f35b6100fe60048036038101906100f991906108ae565b610261565b005b6101086103dd565b604051610115919061093a565b60405180910390f35b610126610403565b005b610130610417565b60405161013d9190610964565b60405180910390f35b610160600480360381019061015b91906108ae565b610440565b005b61017c60048036038101906101779190610857565b61057f565b005b610186610605565b604051610193919061093a565b60405180910390f35b6101a461062b565b600260009054906101000a900473ffffffffffffffffffffffffffffffffffffffff1673ffffffffffffffffffffffffffffffffffffffff1663a9059cbb83836040518363ffffffff1660e01b815260040161020192919061097f565b6020604051808303816000875af1158015610220573d6000803e3d6000fd5b505050506040513d601f19601f8201168201806040525081019061024491906109e0565b505050565b60036020528060005260406000206000915090505481565b80600360003373ffffffffffffffffffffffffffffffffffffffff1673ffffffffffffffffffffffffffffffffffffffff1681526020019081526020016000205410156102e3576040517f08c379a00000000000000000000000000000000000000000000000000000000081526004016102da90610a6a565b60405180910390fd5b80600360003373ffffffffffffffffffffffffffffffffffffffff1673ffffffffffffffffffffffffffffffffffffffff16815260200190815260200160002060008282546103329190610ab9565b92505081905550600160009054906101000a900473ffffffffffffffffffffffffffffffffffffffff1673ffffffffffffffffffffffffffffffffffffffff1663a9059cbb33836040518363ffffffff1660e01b815260040161039692919061097f565b6020604051808303816000875af11580156103b5573d6000803e3d6000fd5b505050506040513d601f19601f820116820180604052508101906103d991906109e0565b5050565b600160009054906101000a900473ffffffffffffffffffffffffffffffffffffffff1681565b61040b61062b565b61041560006106b2565b565b60008060009054906101000a900473ffffffffffffffffffffffffffffffffffffffff16905090565b60008111610483576040517f08c379a000000000000000000000000000000000000000000000000000000000815260040161047a90610b39565b60405180910390fd5b600160009054906101000a900473ffffffffffffffffffffffffffffffffffffffff1673ffffffffffffffffffffffffffffffffffffffff166323b872dd3330846040518463ffffffff1660e01b81526004016104e293929190610b59565b6020604051808303816000875af1158015610501573d6000803e3d6000fd5b505050506040513d601f19601f8201168201806040525081019061052591906109e0565b5080600360003373ffffffffffffffffffffffffffffffffffffffff1673ffffffffffffffffffffffffffffffffffffffff16815260200190815260200160002060008282546105759190610b90565b9250508190555050565b61058761062b565b600073ffffffffffffffffffffffffffffffffffffffff168173ffffffffffffffffffffffffffffffffffffffff16036105f95760006040517f1e4fbdf70000000000000000000000000000000000000000000000000000000081526004016105f09190610964565b60405180910390fd5b610602816106b2565b50565b600260009054906101000a900473ffffffffffffffffffffffffffffffffffffffff1681565b610633610776565b73ffffffffffffffffffffffffffffffffffffffff16610651610417565b73ffffffffffffffffffffffffffffffffffffffff16146106b057610674610776565b6040517f118cdaa70000000000000000000000000000000000000000000000000000000081526004016106a79190610964565b60405180910390fd5b565b60008060009054906101000a900473ffffffffffffffffffffffffffffffffffffffff169050816000806101000a81548173ffffffffffffffffffffffffffffffffffffffff021916908373ffffffffffffffffffffffffffffffffffffffff1602179055508173ffffffffffffffffffffffffffffffffffffffff168173ffffffffffffffffffffffffffffffffffffffff167f8be0079c531659141344cd1fd0a4f28419497f9722a3daafe3b4186f6b6457e060405160405180910390a35050565b600033905090565b600080fd5b600073ffffffffffffffffffffffffffffffffffffffff82169050919050565b60006107ae82610783565b9050919050565b6107be816107a3565b81146107c957600080fd5b50565b6000813590506107db816107b5565b92915050565b6000819050919050565b6107f4816107e1565b81146107ff57600080fd5b50565b600081359050610811816107eb565b92915050565b6000806040838503121561082e5761082d61077e565b5b600061083c858286016107cc565b925050602061084d85828601610802565b9150509250929050565b60006020828403121561086d5761086c61077e565b5b600061087b848285016107cc565b91505092915050565b61088d816107e1565b82525050565b60006020820190506108a86000830184610884565b92915050565b6000602082840312156108c4576108c361077e565b5b60006108d284828501610802565b91505092915050565b6000819050919050565b60006109006108fb6108f684610783565b6108db565b610783565b9050919050565b6000610912826108e5565b9050919050565b600061092482610907565b9050919050565b61093481610919565b82525050565b600060208201905061094f600083018461092b565b92915050565b61095e816107a3565b82525050565b60006020820190506109796000830184610955565b92915050565b60006040820190506109946000830185610955565b6109a16020830184610884565b9392505050565b60008115159050919050565b6109bd816109a8565b81146109c857600080fd5b50565b6000815190506109da816109b4565b92915050565b6000602082840312156109f6576109f561077e565b5b6000610a04848285016109cb565b91505092915050565b600082825260208201905092915050565b7f4e6f7420656e6f7567682062616c616e63650000000000000000000000000000600082015250565b6000610a54601283610a0d565b9150610a5f82610a1e565b602082019050919050565b60006020820190508181036000830152610a8381610a47565b9050919050565b7f4e487b7100000000000000000000000000000000000000000000000000000000600052601160045260246000fd5b6000610ac4826107e1565b9150610acf836107e1565b9250828203905081811115610ae757610ae6610a8a565b5b92915050565b7f416d6f756e74206d757374206265203e20300000000000000000000000000000600082015250565b6000610b23601283610a0d565b9150610b2e82610aed565b602082019050919050565b60006020820190508181036000830152610b5281610b16565b9050919050565b6000606082019050610b6e6000830186610955565b610b7b6020830185610955565b610b886040830184610884565b949350505050565b6000610b9b826107e1565b9150610ba6836107e1565b9250828201905080821115610bbe57610bbd610a8a565b5b9291505056fea264697066735822122002f4f51a286361ad0d28cdd95cbfe41278506caead2872092edb3f931b9e7e9c64736f6c63430008140033",
  "linkReferences": {},
  "deployedLinkReferences": {}
}