{
  "_format": "hh-sol-artifact-1",
  "contractName": "VotingContract",
  "sourceName": "contracts/VotingContract.sol",
  "abi": [
    {
      "inputs": [
        {
          "internalType": "contract IERC20",
          "name": "_governanceToken",
          "type": "address"
        }
      ],
      "stateMutability": "nonpayable",
      "type": "constructor"
    },
    {
      "inputs": [
        {
          "internalType": "string",
          "name": "desc",
          "type": "string"
        }
      ],
      "name": "createProposal",
      "outputs": [],
      "stateMutability": "nonpayable",
      "type": "function"
    },
    {
      "inputs": [
        {
          "internalType": "uint256",
          "name": "proposalId",
          "type": "uint256"
        }
      ],
      "name": "getVotes",
      "outputs": [
        {
          "internalType": "uint256",
          "name": "",
          "type": "uint256"
        }
      ],
      "stateMutability": "view",
      "type": "function"
    },
    {
      "inputs": [],
      "name": "governanceToken",
      "outputs": [
        {
          "internalType": "contract IERC20",
          "name": "",
          "type": "address"
        }
      ],
      "stateMutability": "view",
      "type": "function"
    },
    {
      "inputs": [
        {
          "internalType": "address",
          "name": "",
          "type": "address"
        },
        {
          "internalType": "uint256",
          "name": "",
          "type": "uint256"
        }
      ],
      "name": "hasVoted",
      "outputs": [
        {
          "internalType": "bool",
          "name": "",
          "type": "bool"
        }
      ],
      "stateMutability": "view",
      "type": "function"
    },
    {
      "inputs": [],
      "name": "proposalCount",
      "outputs": [
        {
          "internalType": "uint256",
          "name": "",
          "type": "uint256"
        }
      ],
      "stateMutability": "view",
      "type": "function"
    },
    {
      "inputs": [
        {
          "internalType": "uint256",
          "name": "",
          "type": "uint256"
        }
      ],
      "name": "proposals",
      "outputs": [
        {
          "internalType": "string",
          "name": "description",
          "type": "string"
        },
        {
          "internalType": "uint256",
          "name": "votes",
          "type": "uint256"
        },
        {
          "internalType": "bool",
          "name": "exists",
          "type": "bool"
        }
      ],
      "stateMutability": "view",
      "type": "function"
    },
    {
      "inputs": [
        {
          "internalType": "uint256",
          "name": "proposalId",
          "type": "uint256"
        },
        {
          "internalType": "uint256",
          "name": "amount",
          "type": "uint256"
        }
      ],
      "name": "vote",
      "outputs": [],
      "stateMutability": "nonpayable",
      "type": "function"
    }
  ],
  "bytecode": "0x60806040523480156200001157600080fd5b50604051620010bb380380620010bb8339818101604052810190620000379190620000fc565b806000806101000a81548173ffffffffffffffffffffffffffffffffffffffff021916908373ffffffffffffffffffffffffffffffffffffffff160217905550506200012e565b600080fd5b600073ffffffffffffffffffffffffffffffffffffffff82169050919050565b6000620000b08262000083565b9050919050565b6000620000c482620000a3565b9050919050565b620000d681620000b7565b8114620000e257600080fd5b50565b600081519050620000f681620000cb565b92915050565b6000602082840312156200011557620001146200007e565b5b60006200012584828501620000e5565b91505092915050565b610f7d806200013e6000396000f3fe608060405234801561001057600080fd5b506004361061007d5760003560e01c8063b384abef1161005b578063b384abef14610100578063da35c6641461011c578063f96dae0a1461013a578063ff981099146101585761007d565b8063013cf08b1461008257806342545825146100b457806349c2a1a6146100e4575b600080fd5b61009c60048036038101906100979190610651565b610188565b6040516100ab93929190610738565b60405180910390f35b6100ce60048036038101906100c991906107d4565b610247565b6040516100db9190610814565b60405180910390f35b6100fe60048036038101906100f99190610894565b610276565b005b61011a600480360381019061011591906108e1565b61034d565b005b6101246105c7565b6040516101319190610921565b60405180910390f35b6101426105cd565b60405161014f919061099b565b60405180910390f35b610172600480360381019061016d9190610651565b6105f1565b60405161017f9190610921565b60405180910390f35b60016020528060005260406000206000915090508060000180546101ab906109e5565b80601f01602080910402602001604051908101604052809291908181526020018280546101d7906109e5565b80156102245780601f106101f957610100808354040283529160200191610224565b820191906000526020600020905b81548152906001019060200180831161020757829003601f168201915b5050505050908060010154908060020160009054906101000a900460ff16905083565b60026020528160005260406000206020528060005260406000206000915091509054906101000a900460ff1681565b6003600081548092919061028990610a45565b9190505550604051806060016040528083838080601f016020809104026020016040519081016040528093929190818152602001838380828437600081840152601f19601f8201169050808301925050505050505081526020016000815260200160011515815250600160006003548152602001908152602001600020600082015181600001908161031b9190610c5e565b506020820151816001015560408201518160020160006101000a81548160ff0219169083151502179055509050505050565b6001600083815260200190815260200160002060020160009054906101000a900460ff166103b0576040517f08c379a00000000000000000000000000000000000000000000000000000000081526004016103a790610d7c565b60405180910390fd5b600260003373ffffffffffffffffffffffffffffffffffffffff1673ffffffffffffffffffffffffffffffffffffffff168152602001908152602001600020600083815260200190815260200160002060009054906101000a900460ff161561044e576040517f08c379a000000000000000000000000000000000000000000000000000000000815260040161044590610de8565b60405180910390fd5b60008054906101000a900473ffffffffffffffffffffffffffffffffffffffff1673ffffffffffffffffffffffffffffffffffffffff166323b872dd3330846040518463ffffffff1660e01b81526004016104ab93929190610e17565b6020604051808303816000875af11580156104ca573d6000803e3d6000fd5b505050506040513d601f19601f820116820180604052508101906104ee9190610e7a565b61052d576040517f08c379a000000000000000000000000000000000000000000000000000000000815260040161052490610ef3565b60405180910390fd5b806001600084815260200190815260200160002060010160008282546105539190610f13565b925050819055506001600260003373ffffffffffffffffffffffffffffffffffffffff1673ffffffffffffffffffffffffffffffffffffffff168152602001908152602001600020600084815260200190815260200160002060006101000a81548160ff0219169083151502179055505050565b60035481565b60008054906101000a900473ffffffffffffffffffffffffffffffffffffffff1681565b600060016000838152602001908152602001600020600101549050919050565b600080fd5b600080fd5b6000819050919050565b61062e8161061b565b811461063957600080fd5b50565b60008135905061064b81610625565b92915050565b60006020828403121561066757610666610611565b5b60006106758482850161063c565b91505092915050565b600081519050919050565b600082825260208201905092915050565b60005b838110156106b857808201518184015260208101905061069d565b60008484015250505050565b6000601f19601f8301169050919050565b60006106e08261067e565b6106ea8185610689565b93506106fa81856020860161069a565b610703816106c4565b840191505092915050565b6107178161061b565b82525050565b60008115159050919050565b6107328161071d565b82525050565b6000606082019050818103600083015261075281866106d5565b9050610761602083018561070e565b61076e6040830184610729565b949350505050565b600073ffffffffffffffffffffffffffffffffffffffff82169050919050565b60006107a182610776565b9050919050565b6107b181610796565b81146107bc57600080fd5b50565b6000813590506107ce816107a8565b92915050565b600080604083850312156107eb576107ea610611565b5b60006107f9858286016107bf565b925050602061080a8582860161063c565b9150509250929050565b60006020820190506108296000830184610729565b92915050565b600080fd5b600080fd5b600080fd5b60008083601f8401126108545761085361082f565b5b8235905067ffffffffffffffff81111561087157610870610834565b5b60208301915083600182028301111561088d5761088c610839565b5b9250929050565b600080602083850312156108ab576108aa610611565b5b600083013567ffffffffffffffff8111156108c9576108c8610616565b5b6108d58582860161083e565b92509250509250929050565b600080604083850312156108f8576108f7610611565b5b60006109068582860161063c565b92505060206109178582860161063c565b9150509250929050565b6000602082019050610936600083018461070e565b92915050565b6000819050919050565b600061096161095c61095784610776565b61093c565b610776565b9050919050565b600061097382610946565b9050919050565b600061098582610968565b9050919050565b6109958161097a565b82525050565b60006020820190506109b0600083018461098c565b92915050565b7f4e487b7100000000000000000000000000000000000000000000000000000000600052602260045260246000fd5b600060028204905060018216806109fd57607f821691505b602082108103610a1057610a0f6109b6565b5b50919050565b7f4e487b7100000000000000000000000000000000000000000000000000000000600052601160045260246000fd5b6000610a508261061b565b91507fffffffffffffffffffffffffffffffffffffffffffffffffffffffffffffffff8203610a8257610a81610a16565b5b600182019050919050565b7f4e487b7100000000000000000000000000000000000000000000000000000000600052604160045260246000fd5b60008190508160005260206000209050919050565b60006020601f8301049050919050565b600082821b905092915050565b600060088302610b1e7fffffffffffffffffffffffffffffffffffffffffffffffffffffffffffffffff82610ae1565b610b288683610ae1565b95508019841693508086168417925050509392505050565b6000610b5b610b56610b518461061b565b61093c565b61061b565b9050919050565b6000819050919050565b610b7583610b40565b610b89610b8182610b62565b848454610aee565b825550505050565b600090565b610b9e610b91565b610ba9818484610b6c565b505050565b5b81811015610bcd57610bc2600082610b96565b600181019050610baf565b5050565b601f821115610c1257610be381610abc565b610bec84610ad1565b81016020851015610bfb578190505b610c0f610c0785610ad1565b830182610bae565b50505b505050565b600082821c905092915050565b6000610c3560001984600802610c17565b1980831691505092915050565b6000610c4e8383610c24565b9150826002028217905092915050565b610c678261067e565b67ffffffffffffffff811115610c8057610c7f610a8d565b5b610c8a82546109e5565b610c95828285610bd1565b600060209050601f831160018114610cc85760008415610cb6578287015190505b610cc08582610c42565b865550610d28565b601f198416610cd686610abc565b60005b82811015610cfe57848901518255600182019150602085019450602081019050610cd9565b86831015610d1b5784890151610d17601f891682610c24565b8355505b6001600288020188555050505b505050505050565b7f50726f706f73616c206e6f7420666f756e640000000000000000000000000000600082015250565b6000610d66601283610689565b9150610d7182610d30565b602082019050919050565b60006020820190508181036000830152610d9581610d59565b9050919050565b7f416c726561647920766f74656400000000000000000000000000000000000000600082015250565b6000610dd2600d83610689565b9150610ddd82610d9c565b602082019050919050565b60006020820190508181036000830152610e0181610dc5565b9050919050565b610e1181610796565b82525050565b6000606082019050610e2c6000830186610e08565b610e396020830185610e08565b610e46604083018461070e565b949350505050565b610e578161071d565b8114610e6257600080fd5b50565b600081519050610e7481610e4e565b92915050565b600060208284031215610e9057610e8f610611565b5b6000610e9e84828501610e65565b91505092915050565b7f5472616e73666572206661696c65640000000000000000000000000000000000600082015250565b6000610edd600f83610689565b9150610ee882610ea7565b602082019050919050565b60006020820190508181036000830152610f0c81610ed0565b9050919050565b6000610f1e8261061b565b9150610f298361061b565b9250828201905080821115610f4157610f40610a16565b5b9291505056fea26469706673582212206a4167526d2d26ef529375a92a0231d3404eec38ce422909c8b6bb68ff036cad64736f6c63430008140033",
  "linkReferences": {},
  "deployedLinkReferences": {}
}